{
  "contractName": "Subscription",
  "abi": [
    {
      "constant": true,
      "inputs": [],
      "name": "owner",
      "outputs": [
        {
          "name": "",
          "type": "address"
        }
      ],
      "payable": false,
      "stateMutability": "view",
      "type": "function"
    },
    {
      "constant": true,
      "inputs": [
        {
          "name": "",
          "type": "address"
        }
      ],
      "name": "creators",
      "outputs": [
        {
          "name": "metadata",
          "type": "bytes32"
        },
        {
          "name": "account",
          "type": "address"
        },
        {
          "name": "membershipFee",
          "type": "uint256"
        },
        {
          "name": "policyInfo",
          "type": "bytes32"
        }
      ],
      "payable": false,
      "stateMutability": "view",
      "type": "function"
    },
    {
      "constant": true,
      "inputs": [
        {
          "name": "",
          "type": "bytes32"
        }
      ],
      "name": "policies",
      "outputs": [
        {
          "name": "policyInfo",
          "type": "bytes32"
        },
        {
          "name": "status",
          "type": "uint256"
        }
      ],
      "payable": false,
      "stateMutability": "view",
      "type": "function"
    },
    {
      "inputs": [],
      "payable": false,
      "stateMutability": "nonpayable",
      "type": "constructor"
    },
    {
      "anonymous": false,
      "inputs": [
        {
          "indexed": false,
          "name": "creator",
          "type": "address"
        },
        {
          "indexed": false,
          "name": "metadata",
          "type": "bytes32"
        },
        {
          "indexed": false,
          "name": "policyInfo",
          "type": "bytes32"
        },
        {
          "indexed": false,
          "name": "fees",
          "type": "uint256"
        }
      ],
      "name": "NewSubscriptionPage",
      "type": "event"
    },
    {
      "anonymous": false,
      "inputs": [
        {
          "indexed": false,
          "name": "creator",
          "type": "address"
        },
        {
          "indexed": false,
          "name": "post",
          "type": "bytes32"
        }
      ],
      "name": "NewCreatorPost",
      "type": "event"
    },
    {
      "anonymous": false,
      "inputs": [
        {
          "indexed": false,
          "name": "creator",
          "type": "address"
        },
        {
          "indexed": false,
          "name": "buyer",
          "type": "address"
        }
      ],
      "name": "ApprovedSubscription",
      "type": "event"
    },
    {
      "anonymous": false,
      "inputs": [
        {
          "indexed": false,
          "name": "buyer",
          "type": "address"
        },
        {
          "indexed": false,
          "name": "creator",
          "type": "address"
        }
      ],
      "name": "NewSubscriber",
      "type": "event"
    },
    {
      "constant": false,
      "inputs": [
        {
          "name": "fees",
          "type": "uint256"
        },
        {
          "name": "metadata",
          "type": "bytes32"
        },
        {
          "name": "policyInfo",
          "type": "bytes32"
        }
      ],
      "name": "createSubscriptionPage",
      "outputs": [],
      "payable": false,
      "stateMutability": "nonpayable",
      "type": "function"
    },
    {
      "constant": false,
      "inputs": [
        {
          "name": "data",
          "type": "bytes32"
        }
      ],
      "name": "createPost",
      "outputs": [],
      "payable": false,
      "stateMutability": "nonpayable",
      "type": "function"
    },
    {
      "constant": false,
      "inputs": [
        {
          "name": "buyer",
          "type": "address"
        }
      ],
      "name": "approveSubscription",
      "outputs": [],
      "payable": false,
      "stateMutability": "nonpayable",
      "type": "function"
    },
    {
      "constant": false,
      "inputs": [
        {
          "name": "creator",
          "type": "address"
        }
      ],
      "name": "createSubscription",
      "outputs": [],
      "payable": true,
      "stateMutability": "payable",
      "type": "function"
    }
  ],
  "bytecode": "0x608060405234801561001057600080fd5b50336000806101000a81548173ffffffffffffffffffffffffffffffffffffffff021916908373ffffffffffffffffffffffffffffffffffffffff160217905550610eec806100606000396000f3fe6080604052600436106100705760003560e01c8063933166e11161004e578063933166e11461016c57806398fc71d714610212578063ddbfd8ef1461024d578063e375c0d6146102a357610070565b80630ad2fd6b1461007557806313a7289b146100c45780638da5cb5b14610115575b600080fd5b34801561008157600080fd5b506100c26004803603606081101561009857600080fd5b810190808035906020019092919080359060200190929190803590602001909291905050506102e7565b005b3480156100d057600080fd5b50610113600480360360208110156100e757600080fd5b81019080803573ffffffffffffffffffffffffffffffffffffffff16906020019092919050505061048b565b005b34801561012157600080fd5b5061012a6107b4565b604051808273ffffffffffffffffffffffffffffffffffffffff1673ffffffffffffffffffffffffffffffffffffffff16815260200191505060405180910390f35b34801561017857600080fd5b506101bb6004803603602081101561018f57600080fd5b81019080803573ffffffffffffffffffffffffffffffffffffffff1690602001909291905050506107d9565b604051808581526020018473ffffffffffffffffffffffffffffffffffffffff1673ffffffffffffffffffffffffffffffffffffffff16815260200183815260200182815260200194505050505060405180910390f35b34801561021e57600080fd5b5061024b6004803603602081101561023557600080fd5b8101908080359060200190929190505050610829565b005b34801561025957600080fd5b506102866004803603602081101561027057600080fd5b8101908080359060200190929190505050610a5d565b604051808381526020018281526020019250505060405180910390f35b6102e5600480360360208110156102b957600080fd5b81019080803573ffffffffffffffffffffffffffffffffffffffff169060200190929190505050610a81565b005b6102ef610d93565b33816020019073ffffffffffffffffffffffffffffffffffffffff16908173ffffffffffffffffffffffffffffffffffffffff168152505082816000018181525050818160800181815250508381604001818152505080600160003373ffffffffffffffffffffffffffffffffffffffff1673ffffffffffffffffffffffffffffffffffffffff1681526020019081526020016000206000820151816000015560208201518160010160006101000a81548173ffffffffffffffffffffffffffffffffffffffff021916908373ffffffffffffffffffffffffffffffffffffffff1602179055506040820151816002015560608201518160030190805190602001906103fc929190610dde565b50608082015181600401559050507fa4a5c860baec1bcab30b8f0cb812f7fb3144298072b3f4f741615d9bc3fd31f033848487604051808573ffffffffffffffffffffffffffffffffffffffff1673ffffffffffffffffffffffffffffffffffffffff16815260200184815260200183815260200182815260200194505050505060405180910390a150505050565b610493610d93565b600160003373ffffffffffffffffffffffffffffffffffffffff1673ffffffffffffffffffffffffffffffffffffffff1681526020019081526020016000206040518060a0016040529081600082015481526020016001820160009054906101000a900473ffffffffffffffffffffffffffffffffffffffff1673ffffffffffffffffffffffffffffffffffffffff1673ffffffffffffffffffffffffffffffffffffffff168152602001600282015481526020016003820180548060200260200160405190810160405280929190818152602001828054801561059657602002820191906000526020600020905b815481526020019060010190808311610582575b5050505050815260200160048201548152505090503373ffffffffffffffffffffffffffffffffffffffff16816020015173ffffffffffffffffffffffffffffffffffffffff1614156107b0576000600260008473ffffffffffffffffffffffffffffffffffffffff1673ffffffffffffffffffffffffffffffffffffffff16815260200190815260200160002060010160010181905550600060036000600260008673ffffffffffffffffffffffffffffffffffffffff1673ffffffffffffffffffffffffffffffffffffffff168152602001908152602001600020600101600001548152602001908152602001600020600101819055503373ffffffffffffffffffffffffffffffffffffffff166108fc600160003373ffffffffffffffffffffffffffffffffffffffff1673ffffffffffffffffffffffffffffffffffffffff168152602001908152602001600020600201549081150290604051600060405180830381858888f19350505050158015610717573d6000803e3d6000fd5b507fac63c2dcaf0cfe4d55cae4b84b08909b4e7563dea710483f4ac21fd1989d9c333383604051808373ffffffffffffffffffffffffffffffffffffffff1673ffffffffffffffffffffffffffffffffffffffff1681526020018273ffffffffffffffffffffffffffffffffffffffff1673ffffffffffffffffffffffffffffffffffffffff1681526020019250505060405180910390a15b5050565b6000809054906101000a900473ffffffffffffffffffffffffffffffffffffffff1681565b60016020528060005260406000206000915090508060000154908060010160009054906101000a900473ffffffffffffffffffffffffffffffffffffffff16908060020154908060040154905084565b610831610d93565b600160003373ffffffffffffffffffffffffffffffffffffffff1673ffffffffffffffffffffffffffffffffffffffff1681526020019081526020016000206040518060a0016040529081600082015481526020016001820160009054906101000a900473ffffffffffffffffffffffffffffffffffffffff1673ffffffffffffffffffffffffffffffffffffffff1673ffffffffffffffffffffffffffffffffffffffff168152602001600282015481526020016003820180548060200260200160405190810160405280929190818152602001828054801561093457602002820191906000526020600020905b815481526020019060010190808311610920575b5050505050815260200160048201548152505090503373ffffffffffffffffffffffffffffffffffffffff16816020015173ffffffffffffffffffffffffffffffffffffffff161415610a5957600160003373ffffffffffffffffffffffffffffffffffffffff1673ffffffffffffffffffffffffffffffffffffffff1681526020019081526020016000206003018290806001815401808255809150509060018203906000526020600020016000909192909190915055507fc5d940673e251bb85727ebfd0a6a10af2ce59e899cc84b7b5a40e56b13c4eccd3383604051808373ffffffffffffffffffffffffffffffffffffffff1673ffffffffffffffffffffffffffffffffffffffff1681526020018281526020019250505060405180910390a15b5050565b60036020528060005260406000206000915090508060000154908060010154905082565b600160008273ffffffffffffffffffffffffffffffffffffffff1673ffffffffffffffffffffffffffffffffffffffff16815260200190815260200160002060020154341015610b39576040517f08c379a00000000000000000000000000000000000000000000000000000000081526004018080602001828103825260128152602001807f496e73756666696369656e742066756e6473000000000000000000000000000081525060200191505060405180910390fd5b610b41610e2b565b600160008373ffffffffffffffffffffffffffffffffffffffff1673ffffffffffffffffffffffffffffffffffffffff168152602001908152602001600020600401548160000181815250506001816020018181525050610ba0610e48565b33816000019073ffffffffffffffffffffffffffffffffffffffff16908173ffffffffffffffffffffffffffffffffffffffff168152505081816020018190525080600260003373ffffffffffffffffffffffffffffffffffffffff1673ffffffffffffffffffffffffffffffffffffffff16815260200190815260200160002060008201518160000160006101000a81548173ffffffffffffffffffffffffffffffffffffffff021916908373ffffffffffffffffffffffffffffffffffffffff160217905550602082015181600101600082015181600001556020820151816001015550509050508160036000600160008773ffffffffffffffffffffffffffffffffffffffff1673ffffffffffffffffffffffffffffffffffffffff16815260200190815260200160002060040154815260200190815260200160002060008201518160000155602082015181600101559050507fa3759865bf26ff152d5816f4f0ebd272af83c671e6e4f54ca68d3601739be77e3384604051808373ffffffffffffffffffffffffffffffffffffffff1673ffffffffffffffffffffffffffffffffffffffff1681526020018273ffffffffffffffffffffffffffffffffffffffff1673ffffffffffffffffffffffffffffffffffffffff1681526020019250505060405180910390a1505050565b6040518060a0016040528060008019168152602001600073ffffffffffffffffffffffffffffffffffffffff1681526020016000815260200160608152602001600080191681525090565b828054828255906000526020600020908101928215610e1a579160200282015b82811115610e19578251825591602001919060010190610dfe565b5b509050610e279190610e7e565b5090565b604051806040016040528060008019168152602001600081525090565b6040518060600160405280600073ffffffffffffffffffffffffffffffffffffffff168152602001610e78610ea3565b81525090565b610ea091905b80821115610e9c576000816000905550600101610e84565b5090565b90565b60405180604001604052806000801916815260200160008152509056fea165627a7a723058206742c0d15078771e509de122354adcff8c426c8f5a3403102903078daa99c5c80029",
  "source": "pragma solidity >=0.4.21 <0.6.0;\n\ncontract Subscription {\n    address public owner;\n\n    struct Creator {\n        bytes32 metadata;\n        address account;\n        uint membershipFee;\n        bytes32[] posts;\n        bytes32 policyInfo;\n    }\n\n    struct Buyer {\n        address account;\n        PolicyStatus subscription;\n    }\n\n    struct PolicyStatus {\n        bytes32 policyInfo;\n        uint status;\n    }\n\n    mapping(address => Creator) public creators;\n    mapping(address => Buyer) buyers;\n    mapping(bytes32 => PolicyStatus) public policies;\n\n    event NewSubscriptionPage(address creator, bytes32 metadata, bytes32 policyInfo, uint fees);\n    event NewCreatorPost(address creator, bytes32 post);\n    event ApprovedSubscription(address creator, address buyer);\n    event NewSubscriber(address buyer, address creator);\n\n    constructor() public {\n        owner = msg.sender;\n    }\n\n    modifier restricted() {\n        if (msg.sender == owner) _;\n    }\n\n    modifier onlyCreator() {\n        Creator memory c = creators[msg.sender];\n        if (c.account == msg.sender) _;\n    }\n\n    // Creator creates a policy on nuCypher, passes it ot then create a subscription page\n    function createSubscriptionPage(uint fees, bytes32 metadata, bytes32 policyInfo) public {\n        Creator memory c;\n        c.account = msg.sender;\n        c.metadata = metadata;\n        c.policyInfo = policyInfo;\n        c.membershipFee = fees;\n        creators[msg.sender] = c;\n        emit NewSubscriptionPage(msg.sender, metadata, policyInfo, fees);\n    }\n\n    function createPost(bytes32 data) onlyCreator public {\n        creators[msg.sender].posts.push(data);\n        emit NewCreatorPost(msg.sender, data);\n    }\n\n    function approveSubscription(address buyer) onlyCreator public {\n        buyers[buyer].subscription.status = 0;\n        policies[buyers[buyer].subscription.policyInfo].status = 0;\n        // release from escrow\n        msg.sender.transfer(creators[msg.sender].membershipFee);\n        emit ApprovedSubscription(msg.sender, buyer);\n    }\n\n    function createSubscription(address creator) public payable {\n        // escrow payment\n        require(msg.value >= creators[creator].membershipFee, \"Insufficient funds\");\n        PolicyStatus memory p;\n        p.policyInfo = creators[creator].policyInfo;\n        p.status = 1;\n        Buyer memory b;\n        b.account = msg.sender;\n        b.subscription = p;\n        buyers[msg.sender] = b;\n        policies[creators[creator].policyInfo] = p;\n        emit NewSubscriber(msg.sender, creator);\n    }\n}",
  "sourcePath": "/home/fnatic/nuSubscribe/contracts/contracts/Subscription.sol",
  "compiler": {
    "name": "solc",
    "version": "0.5.8+commit.23d335f2.Emscripten.clang"
  },
  "schemaVersion": "3.0.16",
  "updatedAt": "2020-07-26T22:34:15.399Z",
  "devdoc": {
    "methods": {}
  },
  "userdoc": {
    "methods": {}
  }
}