{
  "contractName": "Subscription",
  "abi": [
    {
      "constant": true,
      "inputs": [],
      "name": "owner",
      "outputs": [
        {
          "name": "",
          "type": "address"
        }
      ],
      "payable": false,
      "stateMutability": "view",
      "type": "function"
    },
    {
      "constant": true,
      "inputs": [
        {
          "name": "",
          "type": "address"
        }
      ],
      "name": "creators",
      "outputs": [
        {
          "name": "account",
          "type": "address"
        },
        {
          "name": "membershipFee",
          "type": "uint256"
        },
        {
          "name": "metadata",
          "type": "bytes32"
        },
        {
          "name": "members",
          "type": "uint256"
        }
      ],
      "payable": false,
      "stateMutability": "view",
      "type": "function"
    },
    {
      "constant": true,
      "inputs": [
        {
          "name": "",
          "type": "bytes32"
        }
      ],
      "name": "policies",
      "outputs": [
        {
          "name": "metadata",
          "type": "bytes32"
        },
        {
          "name": "status",
          "type": "uint256"
        }
      ],
      "payable": false,
      "stateMutability": "view",
      "type": "function"
    },
    {
      "inputs": [],
      "payable": false,
      "stateMutability": "nonpayable",
      "type": "constructor"
    },
    {
      "anonymous": false,
      "inputs": [
        {
          "indexed": false,
          "name": "creator",
          "type": "address"
        },
        {
          "indexed": false,
          "name": "metadata",
          "type": "bytes32"
        },
        {
          "indexed": false,
          "name": "fees",
          "type": "uint256"
        }
      ],
      "name": "NewSubscriptionPage",
      "type": "event"
    },
    {
      "anonymous": false,
      "inputs": [
        {
          "indexed": false,
          "name": "creator",
          "type": "address"
        },
        {
          "indexed": false,
          "name": "post",
          "type": "bytes32"
        }
      ],
      "name": "NewCreatorPost",
      "type": "event"
    },
    {
      "anonymous": false,
      "inputs": [
        {
          "indexed": false,
          "name": "creator",
          "type": "address"
        },
        {
          "indexed": false,
          "name": "buyer",
          "type": "address"
        }
      ],
      "name": "ApprovedSubscription",
      "type": "event"
    },
    {
      "anonymous": false,
      "inputs": [
        {
          "indexed": false,
          "name": "buyer",
          "type": "address"
        },
        {
          "indexed": false,
          "name": "creator",
          "type": "address"
        }
      ],
      "name": "NewSubscriber",
      "type": "event"
    },
    {
      "constant": false,
      "inputs": [
        {
          "name": "fees",
          "type": "uint256"
        },
        {
          "name": "metadata",
          "type": "bytes32"
        }
      ],
      "name": "createSubscriptionPage",
      "outputs": [],
      "payable": false,
      "stateMutability": "nonpayable",
      "type": "function"
    },
    {
      "constant": false,
      "inputs": [
        {
          "name": "data",
          "type": "bytes32"
        }
      ],
      "name": "createPost",
      "outputs": [],
      "payable": false,
      "stateMutability": "nonpayable",
      "type": "function"
    },
    {
      "constant": false,
      "inputs": [
        {
          "name": "buyer",
          "type": "address"
        }
      ],
      "name": "approveSubscription",
      "outputs": [],
      "payable": false,
      "stateMutability": "nonpayable",
      "type": "function"
    },
    {
      "constant": false,
      "inputs": [
        {
          "name": "creator",
          "type": "address"
        }
      ],
      "name": "createSubscription",
      "outputs": [],
      "payable": true,
      "stateMutability": "payable",
      "type": "function"
    }
  ],
  "bytecode": "0x608060405234801561001057600080fd5b50336000806101000a81548173ffffffffffffffffffffffffffffffffffffffff021916908373ffffffffffffffffffffffffffffffffffffffff160217905550610cbd806100606000396000f3fe6080604052600436106100705760003560e01c8063933166e11161004e578063933166e11461016257806398fc71d714610208578063ddbfd8ef14610243578063e375c0d61461029957610070565b806313a7289b146100755780638da5cb5b146100c65780638fff43771461011d575b600080fd5b34801561008157600080fd5b506100c46004803603602081101561009857600080fd5b81019080803573ffffffffffffffffffffffffffffffffffffffff1690602001909291905050506102dd565b005b3480156100d257600080fd5b506100db610546565b604051808273ffffffffffffffffffffffffffffffffffffffff1673ffffffffffffffffffffffffffffffffffffffff16815260200191505060405180910390f35b34801561012957600080fd5b506101606004803603604081101561014057600080fd5b81019080803590602001909291908035906020019092919050505061056b565b005b34801561016e57600080fd5b506101b16004803603602081101561018557600080fd5b81019080803573ffffffffffffffffffffffffffffffffffffffff169060200190929190505050610707565b604051808573ffffffffffffffffffffffffffffffffffffffff1673ffffffffffffffffffffffffffffffffffffffff16815260200184815260200183815260200182815260200194505050505060405180910390f35b34801561021457600080fd5b506102416004803603602081101561022b57600080fd5b8101908080359060200190929190505050610757565b005b34801561024f57600080fd5b5061027c6004803603602081101561026657600080fd5b8101908080359060200190929190505050610831565b604051808381526020018281526020019250505060405180910390f35b6102db600480360360208110156102af57600080fd5b81019080803573ffffffffffffffffffffffffffffffffffffffff169060200190929190505050610855565b005b3373ffffffffffffffffffffffffffffffffffffffff16600160003373ffffffffffffffffffffffffffffffffffffffff1673ffffffffffffffffffffffffffffffffffffffff16815260200190815260200160002060000160009054906101000a900473ffffffffffffffffffffffffffffffffffffffff1673ffffffffffffffffffffffffffffffffffffffff161461037757600080fd5b6000600260008373ffffffffffffffffffffffffffffffffffffffff1673ffffffffffffffffffffffffffffffffffffffff16815260200190815260200160002060010160010181905550600060036000600260008573ffffffffffffffffffffffffffffffffffffffff1673ffffffffffffffffffffffffffffffffffffffff168152602001908152602001600020600101600001548152602001908152602001600020600101819055503373ffffffffffffffffffffffffffffffffffffffff166108fc600160003373ffffffffffffffffffffffffffffffffffffffff1673ffffffffffffffffffffffffffffffffffffffff168152602001908152602001600020600101549081150290604051600060405180830381858888f193505050501580156104ab573d6000803e3d6000fd5b507fac63c2dcaf0cfe4d55cae4b84b08909b4e7563dea710483f4ac21fd1989d9c333382604051808373ffffffffffffffffffffffffffffffffffffffff1673ffffffffffffffffffffffffffffffffffffffff1681526020018273ffffffffffffffffffffffffffffffffffffffff1673ffffffffffffffffffffffffffffffffffffffff1681526020019250505060405180910390a150565b6000809054906101000a900473ffffffffffffffffffffffffffffffffffffffff1681565b610573610b67565b33816000019073ffffffffffffffffffffffffffffffffffffffff16908173ffffffffffffffffffffffffffffffffffffffff16815250508181606001818152505082816020018181525050600081608001818152505080600160003373ffffffffffffffffffffffffffffffffffffffff1673ffffffffffffffffffffffffffffffffffffffff16815260200190815260200160002060008201518160000160006101000a81548173ffffffffffffffffffffffffffffffffffffffff021916908373ffffffffffffffffffffffffffffffffffffffff160217905550602082015181600101556040820151816002019080519060200190610677929190610baf565b5060608201518160030155608082015181600401559050507ff56865ba871c5f3ffabe0380540c8589d927ac1203d6c4d216504c5caa0a1eab338385604051808473ffffffffffffffffffffffffffffffffffffffff1673ffffffffffffffffffffffffffffffffffffffff168152602001838152602001828152602001935050505060405180910390a1505050565b60016020528060005260406000206000915090508060000160009054906101000a900473ffffffffffffffffffffffffffffffffffffffff16908060010154908060030154908060040154905084565b600160003373ffffffffffffffffffffffffffffffffffffffff1673ffffffffffffffffffffffffffffffffffffffff1681526020019081526020016000206002018190806001815401808255809150509060018203906000526020600020016000909192909190915055507fc5d940673e251bb85727ebfd0a6a10af2ce59e899cc84b7b5a40e56b13c4eccd3382604051808373ffffffffffffffffffffffffffffffffffffffff1673ffffffffffffffffffffffffffffffffffffffff1681526020018281526020019250505060405180910390a150565b60036020528060005260406000206000915090508060000154908060010154905082565b600160008273ffffffffffffffffffffffffffffffffffffffff1673ffffffffffffffffffffffffffffffffffffffff1681526020019081526020016000206001015434101561090d576040517f08c379a00000000000000000000000000000000000000000000000000000000081526004018080602001828103825260128152602001807f496e73756666696369656e742066756e6473000000000000000000000000000081525060200191505060405180910390fd5b610915610bfc565b600160008373ffffffffffffffffffffffffffffffffffffffff1673ffffffffffffffffffffffffffffffffffffffff168152602001908152602001600020600301548160000181815250506001816020018181525050610974610c19565b33816000019073ffffffffffffffffffffffffffffffffffffffff16908173ffffffffffffffffffffffffffffffffffffffff168152505081816020018190525080600260003373ffffffffffffffffffffffffffffffffffffffff1673ffffffffffffffffffffffffffffffffffffffff16815260200190815260200160002060008201518160000160006101000a81548173ffffffffffffffffffffffffffffffffffffffff021916908373ffffffffffffffffffffffffffffffffffffffff160217905550602082015181600101600082015181600001556020820151816001015550509050508160036000600160008773ffffffffffffffffffffffffffffffffffffffff1673ffffffffffffffffffffffffffffffffffffffff16815260200190815260200160002060030154815260200190815260200160002060008201518160000155602082015181600101559050507fa3759865bf26ff152d5816f4f0ebd272af83c671e6e4f54ca68d3601739be77e3384604051808373ffffffffffffffffffffffffffffffffffffffff1673ffffffffffffffffffffffffffffffffffffffff1681526020018273ffffffffffffffffffffffffffffffffffffffff1673ffffffffffffffffffffffffffffffffffffffff1681526020019250505060405180910390a1505050565b6040518060a00160405280600073ffffffffffffffffffffffffffffffffffffffff168152602001600081526020016060815260200160008019168152602001600081525090565b828054828255906000526020600020908101928215610beb579160200282015b82811115610bea578251825591602001919060010190610bcf565b5b509050610bf89190610c4f565b5090565b604051806040016040528060008019168152602001600081525090565b6040518060600160405280600073ffffffffffffffffffffffffffffffffffffffff168152602001610c49610c74565b81525090565b610c7191905b80821115610c6d576000816000905550600101610c55565b5090565b90565b60405180604001604052806000801916815260200160008152509056fea165627a7a72305820d6c194800e3b5b94d994f1e52188c7afef234f42c983c48ef386d775ea41523c0029",
  "source": "pragma solidity >=0.4.21 <0.6.0;\n\ncontract Subscription {\n    address public owner;\n\n    struct Creator {\n        address account;\n        uint membershipFee;\n        bytes32[] posts;\n        bytes32 metadata;\n        uint members;\n    }\n\n    struct Buyer {\n        address account;\n        PolicyStatus subscription;\n    }\n\n    struct PolicyStatus {\n        bytes32 metadata;\n        uint status;\n    }\n\n    mapping(address => Creator) public creators;\n    mapping(address => Buyer) buyers;\n    mapping(bytes32 => PolicyStatus) public policies;\n\n    event NewSubscriptionPage(address creator, bytes32 metadata, uint fees);\n    event NewCreatorPost(address creator, bytes32 post);\n    event ApprovedSubscription(address creator, address buyer);\n    event NewSubscriber(address buyer, address creator);\n\n    constructor() public {\n        owner = msg.sender;\n    }\n\n    modifier restricted() {\n        if (msg.sender == owner) _;\n    }\n\n    // Creator creates a policy on nuCypher, passes it to then create a subscription page\n    function createSubscriptionPage(uint fees, bytes32 metadata) public {\n        Creator memory c;\n        c.account = msg.sender;\n        c.metadata = metadata;\n        c.membershipFee = fees;\n        c.members = 0;\n        creators[msg.sender] = c;\n        emit NewSubscriptionPage(msg.sender, metadata, fees);\n    }\n\n    function createPost(bytes32 data) public {\n        creators[msg.sender].posts.push(data);\n        emit NewCreatorPost(msg.sender, data);\n    }\n\n    function approveSubscription(address buyer) public {\n        require(creators[msg.sender].account == msg.sender);\n        buyers[buyer].subscription.status = 0;\n        policies[buyers[buyer].subscription.metadata].status = 0;\n        // release from escrow\n        msg.sender.transfer(creators[msg.sender].membershipFee);\n        emit ApprovedSubscription(msg.sender, buyer);\n    }\n\n    function createSubscription(address creator) public payable {\n        // escrow payment\n        require(msg.value >= creators[creator].membershipFee, \"Insufficient funds\");\n        PolicyStatus memory p;\n        p.metadata = creators[creator].metadata;\n        p.status = 1;\n        Buyer memory b;\n        b.account = msg.sender;\n        b.subscription = p;\n        buyers[msg.sender] = b;\n        policies[creators[creator].metadata] = p;\n        emit NewSubscriber(msg.sender, creator);\n    }\n}",
  "sourcePath": "/home/fnatic/nuSubscribe/contracts/contracts/Subscription.sol",
  "compiler": {
    "name": "solc",
    "version": "0.5.8+commit.23d335f2.Emscripten.clang"
  },
  "schemaVersion": "3.0.16",
  "updatedAt": "2020-07-27T19:43:27.925Z",
  "devdoc": {
    "methods": {}
  },
  "userdoc": {
    "methods": {}
  }
}